{
  "contractName": "ComLib",
  "abi": [
    {
      "constant": true,
      "inputs": [
        {
          "name": "value",
          "type": "HealthContract.FeedbackType"
        }
      ],
      "name": "FeedbackToNum",
      "outputs": [
        {
          "name": "",
          "type": "uint256"
        }
      ],
      "payable": false,
      "stateMutability": "pure",
      "type": "function"
    },
    {
      "constant": true,
      "inputs": [
        {
          "name": "value",
          "type": "uint256"
        }
      ],
      "name": "NumToFeedback",
      "outputs": [
        {
          "name": "",
          "type": "HealthContract.FeedbackType"
        }
      ],
      "payable": false,
      "stateMutability": "pure",
      "type": "function"
    }
  ],
  "bytecode": "0x6060604052341561000f57600080fd5b6102178061001e6000396000f30060606040526004361061004c576000357c0100000000000000000000000000000000000000000000000000000000900463ffffffff1680637a4b0ec3146100515780638150219114610080575b600080fd5b61006a600480803560ff169060200190919050506100ba565b6040518082815260200191505060405180910390f35b6100966004808035906020019091905050610189565b604051808260058111156100a657fe5b60ff16815260200191505060405180910390f35b6000600160058111156100c957fe5b8260058111156100d557fe5b14156100e45760019050610184565b600260058111156100f157fe5b8260058111156100fd57fe5b141561010c5760029050610184565b6003600581111561011957fe5b82600581111561012557fe5b14156101345760039050610184565b6004600581111561014157fe5b82600581111561014d57fe5b141561015c5760049050610184565b60058081111561016857fe5b82600581111561017457fe5b14156101835760059050610184565b5b919050565b6000600182141561019d57600190506101e6565b60028214156101af57600290506101e6565b60038214156101c157600390506101e6565b60048214156101d357600490506101e6565b60058214156101e557600590506101e6565b5b9190505600a165627a7a72305820c512e3fe99e9107b2bc3da0c894a982ca6fedc8dc645e4ea26bb079f91545fff0029",
  "source": "pragma solidity ^0.4.17;\r\nimport \"./HealthContract.sol\";\r\n\r\nlibrary ComLib{\r\nfunction FeedbackToNum(HealthContract.FeedbackType value) \r\n        public\r\n        pure \r\n        returns (uint){\r\n            if(value==HealthContract.FeedbackType.Poor)\r\n                return 1;\r\n            else if(value==HealthContract.FeedbackType.Average)\r\n                return 2;\r\n            else if(value==HealthContract.FeedbackType.Good)\r\n                return 3;\r\n            else if(value==HealthContract.FeedbackType.Best)\r\n                return 4;\r\n            else if(value==HealthContract.FeedbackType.Exceptional)\r\n                return 5;\r\n        }\r\n        \r\n    function NumToFeedback(uint value) \r\n        public\r\n        pure \r\n        returns (HealthContract.FeedbackType){\r\n            if(value==1)\r\n                return HealthContract.FeedbackType.Poor;\r\n            else if(value==2)\r\n                return HealthContract.FeedbackType.Average;\r\n            else if(value==3)\r\n                return HealthContract.FeedbackType.Good;\r\n            else if(value==4)\r\n                return HealthContract.FeedbackType.Best;\r\n            else if(value==5)\r\n                return HealthContract.FeedbackType.Exceptional;\r\n        }\r\n}\r\n",
  "sourcePath": "X:\\eth\\smarthealth\\contracts\\ComLib.sol",
  "compiler": {
    "name": "solc",
    "version": "0.4.19+commit.c4cbbb05.Emscripten.clang"
  },
  "schemaVersion": "1.0.1",
  "updatedAt": "2018-02-22T06:46:38.543Z"
}